:1000000001308A000E2900002C08F8012B02031889
:100010000C282B08F7001828F7010830AD00AB0DAD
:10002000F70D2C0877020318F700F80DAD0B0F2819
:1000300008002030261E3030A7002508F700A51F35
:100040002928F709F70A7708A5002D30A700A61779
:1000500026142508AB006430AC0004207708A50006
:1000600030307807A8002508AB000A30AC00042027
:1000700030307707AA0030307807A9002708F7004A
:100080003030280203194828A614A61B26155C2820
:100090002708A8002030A70030302902031954286F
:1000A0002614A61BA6145C28031D2614031D5C2819
:1000B0002808A9002030A80026196328A618672858
:1000C00026186B286F2827080C1E6428990028081A
:1000D0000C1E6828990029080C1E6C2899002A0813
:1000E0000C1E702899000800241624088316870027
:1000F0008312071E84282B300C1E7C2899002B307D
:10010000A3002108A2009128831608158312081D58
:1001100091282D300C1E8A2899002D30A30021082B
:10012000A200831688148312881CB42823082B3C51
:10013000031D9E2822082107A000A12821082202D1
:10014000A0003D300C1EA22899002008A500183000
:10015000A600192020300C1EAB28990020300C1E60
:10016000AF289900A001F428831686178312861FF2
:10017000C1280130A1002108A5001830A6001920CF
:10018000F428831686168312861ECE280230A1001C
:100190002108A5001830A6001920F428831686151A
:1001A0008312861DDB280330A1002108A50018302A
:1001B000A6001920F428831686148312861CE828CA
:1001C0000430A1002108A5001830A6001920F42849
:1001D000831608178312081FF4280530A100210890
:1001E000A5001830A60019208A110A1239292630D4
:1001F00084008313000803190B290130F800F7016C
:10020000F70B0029F80BFF284A30F700F70B0629F7
:100210000929800BFD288A110A123E2919308316FC
:100220009900A6309800903083129800A001FF300A
:10023000A40083161F149F141F159F1107309C00E4
:1002400083131F308305FF30860087008312A400CC
:100250000030A4008316870183128701831686016C
:100260008312860124112408831687008312071540
:1002700074280230A5009630A600F728A50B3B296C
:0402800038296300B6
:02400E00393F38
:00000001FF
;PIC16F877A
;CRC=67C2  CREATED="29-May-18 16:01"
